{
  "address": "0xaeFAcfec21258446C63E0571782D8291c5244175",
  "abi": [
    {
      "inputs": [
        {
          "internalType": "uint256",
          "name": "",
          "type": "uint256"
        }
      ],
      "name": "contracts",
      "outputs": [
        {
          "internalType": "string",
          "name": "_symbol",
          "type": "string"
        },
        {
          "internalType": "string",
          "name": "_name",
          "type": "string"
        },
        {
          "internalType": "address",
          "name": "_address",
          "type": "address"
        }
      ],
      "stateMutability": "view",
      "type": "function"
    },
    {
      "inputs": [
        {
          "internalType": "string",
          "name": "name",
          "type": "string"
        },
        {
          "internalType": "string",
          "name": "symbol",
          "type": "string"
        },
        {
          "internalType": "uint256",
          "name": "initialSupply",
          "type": "uint256"
        }
      ],
      "name": "deployNewToken",
      "outputs": [],
      "stateMutability": "nonpayable",
      "type": "function"
    },
    {
      "inputs": [],
      "name": "getContracts",
      "outputs": [
        {
          "components": [
            {
              "internalType": "string",
              "name": "_symbol",
              "type": "string"
            },
            {
              "internalType": "string",
              "name": "_name",
              "type": "string"
            },
            {
              "internalType": "address",
              "name": "_address",
              "type": "address"
            }
          ],
          "internalType": "struct ERC20TokenFactory.tokenStruct[]",
          "name": "",
          "type": "tuple[]"
        }
      ],
      "stateMutability": "view",
      "type": "function"
    },
    {
      "inputs": [],
      "name": "getLastDeployedContract",
      "outputs": [
        {
          "internalType": "address",
          "name": "",
          "type": "address"
        }
      ],
      "stateMutability": "view",
      "type": "function"
    },
    {
      "inputs": [
        {
          "internalType": "address",
          "name": "",
          "type": "address"
        }
      ],
      "name": "lastDeployedContract",
      "outputs": [
        {
          "internalType": "address",
          "name": "",
          "type": "address"
        }
      ],
      "stateMutability": "view",
      "type": "function"
    },
    {
      "inputs": [],
      "name": "resetButton",
      "outputs": [],
      "stateMutability": "nonpayable",
      "type": "function"
    }
  ],
  "transactionHash": "0x43fb7e8c1b868cd3c0fe9d3295c0447f0aabdf5473641f6b02aae876564ba3ea",
  "args": [],
  "solcInputHash": "dd9c3f789930df53cfa9dd3dd5657ce4",
  "bytecode": "0x608060405234801561001057600080fd5b50611960806100206000396000f3fe60806040523480156200001157600080fd5b50600436106200006a5760003560e01c806304568d48146200006f578063474da79a146200007b578063b8b9ebeb14620000ac578063c3a2a93a14620000c3578063d2eeac2114620000dc578063ec8e0ac11462000102575b600080fd5b620000796200010c565b005b620000926200008c3660046200093e565b6200011c565b604051620000a39392919062000a88565b60405180910390f35b62000079620000bd366004620008cd565b62000282565b620000cd6200048d565b604051620000a39190620009eb565b620000f3620000ed3660046200087b565b6200063d565b604051620000a39190620009be565b620000f362000658565b6200011a6001600062000674565b565b600181815481106200012a57fe5b60009182526020918290206003919091020180546040805160026001841615610100026000190190931692909204601f810185900485028301850190915280825291935091839190830182828015620001c75780601f106200019b57610100808354040283529160200191620001c7565b820191906000526020600020905b815481529060010190602001808311620001a957829003601f168201915b505050505090806001018054600181600116156101000203166002900480601f016020809104026020016040519081016040528092919081815260200182805460018160011615610100020316600290048015620002695780601f106200023d5761010080835404028352916020019162000269565b820191906000526020600020905b8154815290600101906020018083116200024b57829003601f168201915b505050600290930154919250506001600160a01b031683565b600083838360405162000295906200069a565b620002a39392919062000aca565b604051809103906000f080158015620002c0573d6000803e3d6000fd5b50905080620002ce620006a8565b60208082018790528582526001600160a01b038316604083015260018054808201825560009190915282518051849360039093027fb10e2d527612073b26eecdfd717e6a320cf44b4afac2b0732d9fcbe2b7fa0cf6019262000335928492910190620006d2565b506020828101518051620003509260018501920190620006d2565b5060409182015160029190910180546001600160a01b03199081166001600160a01b039384161790915533600081815260208181529085902080549093168785161790925583516318160ddd60e01b815293519287169363a9059cbb93919285926318160ddd926004808201939291829003018186803b158015620003d457600080fd5b505afa158015620003e9573d6000803e3d6000fd5b505050506040513d601f19601f820116820180604052508101906200040f919062000957565b6040518363ffffffff1660e01b81526004016200042e929190620009d2565b602060405180830381600087803b1580156200044957600080fd5b505af11580156200045e573d6000803e3d6000fd5b505050506040513d601f19601f82011682018060405250810190620004849190620008ab565b50505050505050565b60606001805480602002602001604051908101604052809291908181526020016000905b82821015620006345760008481526020908190206040805160038602909201805460026001821615610100026000190190911604601f81018590049094028301608090810190925260608301848152929390928492909184918401828280156200055f5780601f1062000533576101008083540402835291602001916200055f565b820191906000526020600020905b8154815290600101906020018083116200054157829003601f168201915b50505050508152602001600182018054600181600116156101000203166002900480601f016020809104026020016040519081016040528092919081815260200182805460018160011615610100020316600290048015620006055780601f10620005d95761010080835404028352916020019162000605565b820191906000526020600020905b815481529060010190602001808311620005e757829003601f168201915b5050509183525050600291909101546001600160a01b03166020918201529082526001929092019101620004b1565b50505050905090565b6000602081905290815260409020546001600160a01b031681565b336000908152602081905260409020546001600160a01b031690565b508054600082556003029060005260206000209081019062000697919062000757565b50565b610e268062000b0583390190565b6040518060600160405280606081526020016060815260200160006001600160a01b031681525090565b828054600181600116156101000203166002900490600052602060002090601f016020900481019282601f106200071557805160ff191683800117855562000745565b8280016001018555821562000745579182015b828111156200074557825182559160200191906001019062000728565b50620007539291506200079a565b5090565b80821115620007535760006200076e8282620007b1565b6200077e600183016000620007b1565b506002810180546001600160a01b031916905560030162000757565b5b808211156200075357600081556001016200079b565b50805460018160011615610100020316600290046000825580601f10620007d9575062000697565b601f0160209004906000526020600020908101906200069791906200079a565b600082601f8301126200080a578081fd5b813567ffffffffffffffff8082111562000822578283fd5b604051601f8301601f19168101602001828111828210171562000843578485fd5b6040528281529250828483016020018610156200085f57600080fd5b8260208601602083013760006020848301015250505092915050565b6000602082840312156200088d578081fd5b81356001600160a01b0381168114620008a4578182fd5b9392505050565b600060208284031215620008bd578081fd5b81518015158114620008a4578182fd5b600080600060608486031215620008e2578182fd5b833567ffffffffffffffff80821115620008fa578384fd5b6200090887838801620007f9565b945060208601359150808211156200091e578384fd5b506200092d86828701620007f9565b925050604084013590509250925092565b60006020828403121562000950578081fd5b5035919050565b60006020828403121562000969578081fd5b5051919050565b60008151808452815b81811015620009975760208185018101518683018201520162000979565b81811115620009a95782602083870101525b50601f01601f19169290920160200192915050565b6001600160a01b0391909116815260200190565b6001600160a01b03929092168252602082015260400190565b60208082528251828201819052600091906040908185019080840286018301878501865b8381101562000a7a57603f1989840301855281516060815181865262000a388287018262000970565b915050888201518582038a87015262000a52828262000970565b928901516001600160a01b031695890195909552509487019492509086019060010162000a0f565b509098975050505050505050565b60006060825262000a9d606083018662000970565b828103602084015262000ab1818662000970565b91505060018060a01b0383166040830152949350505050565b60006060825262000adf606083018662000970565b828103602084015262000af3818662000970565b91505082604083015294935050505056fe60806040523480156200001157600080fd5b5060405162000e2638038062000e26833981810160405260608110156200003757600080fd5b81019080805160405193929190846401000000008211156200005857600080fd5b9083019060208201858111156200006e57600080fd5b82516401000000008111828201881017156200008957600080fd5b82525081516020918201929091019080838360005b83811015620000b85781810151838201526020016200009e565b50505050905090810190601f168015620000e65780820380516001836020036101000a031916815260200191505b50604052602001805160405193929190846401000000008211156200010a57600080fd5b9083019060208201858111156200012057600080fd5b82516401000000008111828201881017156200013b57600080fd5b82525081516020918201929091019080838360005b838110156200016a57818101518382015260200162000150565b50505050905090810190601f168015620001985780820380516001836020036101000a031916815260200191505b5060405260209081015185519093508592508491620001bd9160039185019062000388565b508051620001d390600490602084019062000388565b50506005805460ff19166012179055506200020033620001f262000209565b60ff16600a0a830262000212565b50505062000424565b60055460ff1690565b6001600160a01b0382166200026e576040805162461bcd60e51b815260206004820152601f60248201527f45524332303a206d696e7420746f20746865207a65726f206164647265737300604482015290519081900360640190fd5b6200027c6000838362000321565b62000298816002546200032660201b620005731790919060201c565b6002556001600160a01b03821660009081526020818152604090912054620002cb9183906200057362000326821b17901c565b6001600160a01b0383166000818152602081815260408083209490945583518581529351929391927fddf252ad1be2c89b69c2b068fc378daa952ba7f163c4a11628f55a4df523b3ef9281900390910190a35050565b505050565b60008282018381101562000381576040805162461bcd60e51b815260206004820152601b60248201527f536166654d6174683a206164646974696f6e206f766572666c6f770000000000604482015290519081900360640190fd5b9392505050565b828054600181600116156101000203166002900490600052602060002090601f016020900481019282601f10620003cb57805160ff1916838001178555620003fb565b82800160010185558215620003fb579182015b82811115620003fb578251825591602001919060010190620003de565b50620004099291506200040d565b5090565b5b808211156200040957600081556001016200040e565b6109f280620004346000396000f3fe608060405234801561001057600080fd5b50600436106100a95760003560e01c8063395093511161007157806339509351146101d957806370a082311461020557806395d89b411461022b578063a457c2d714610233578063a9059cbb1461025f578063dd62ed3e1461028b576100a9565b806306fdde03146100ae578063095ea7b31461012b57806318160ddd1461016b57806323b872dd14610185578063313ce567146101bb575b600080fd5b6100b66102b9565b6040805160208082528351818301528351919283929083019185019080838360005b838110156100f05781810151838201526020016100d8565b50505050905090810190601f16801561011d5780820380516001836020036101000a031916815260200191505b509250505060405180910390f35b6101576004803603604081101561014157600080fd5b506001600160a01b03813516906020013561034f565b604080519115158252519081900360200190f35b61017361036c565b60408051918252519081900360200190f35b6101576004803603606081101561019b57600080fd5b506001600160a01b03813581169160208101359091169060400135610372565b6101c36103f9565b6040805160ff9092168252519081900360200190f35b610157600480360360408110156101ef57600080fd5b506001600160a01b038135169060200135610402565b6101736004803603602081101561021b57600080fd5b50356001600160a01b0316610450565b6100b661046b565b6101576004803603604081101561024957600080fd5b506001600160a01b0381351690602001356104cc565b6101576004803603604081101561027557600080fd5b506001600160a01b038135169060200135610534565b610173600480360360408110156102a157600080fd5b506001600160a01b0381358116916020013516610548565b60038054604080516020601f60026000196101006001881615020190951694909404938401819004810282018101909252828152606093909290918301828280156103455780601f1061031a57610100808354040283529160200191610345565b820191906000526020600020905b81548152906001019060200180831161032857829003601f168201915b5050505050905090565b600061036361035c6105d4565b84846105d8565b50600192915050565b60025490565b600061037f8484846106c4565b6103ef8461038b6105d4565b6103ea85604051806060016040528060288152602001610927602891396001600160a01b038a166000908152600160205260408120906103c96105d4565b6001600160a01b03168152602081019190915260400160002054919061081f565b6105d8565b5060019392505050565b60055460ff1690565b600061036361040f6105d4565b846103ea85600160006104206105d4565b6001600160a01b03908116825260208083019390935260409182016000908120918c168152925290205490610573565b6001600160a01b031660009081526020819052604090205490565b60048054604080516020601f60026000196101006001881615020190951694909404938401819004810282018101909252828152606093909290918301828280156103455780601f1061031a57610100808354040283529160200191610345565b60006103636104d96105d4565b846103ea8560405180606001604052806025815260200161099860259139600160006105036105d4565b6001600160a01b03908116825260208083019390935260409182016000908120918d1681529252902054919061081f565b60006103636105416105d4565b84846106c4565b6001600160a01b03918216600090815260016020908152604080832093909416825291909152205490565b6000828201838110156105cd576040805162461bcd60e51b815260206004820152601b60248201527f536166654d6174683a206164646974696f6e206f766572666c6f770000000000604482015290519081900360640190fd5b9392505050565b3390565b6001600160a01b03831661061d5760405162461bcd60e51b81526004018080602001828103825260248152602001806109746024913960400191505060405180910390fd5b6001600160a01b0382166106625760405162461bcd60e51b81526004018080602001828103825260228152602001806108df6022913960400191505060405180910390fd5b6001600160a01b03808416600081815260016020908152604080832094871680845294825291829020859055815185815291517f8c5be1e5ebec7d5bd14f71427d1e84f3dd0314c0f7b2291e5b200ac8c7c3b9259281900390910190a3505050565b6001600160a01b0383166107095760405162461bcd60e51b815260040180806020018281038252602581526020018061094f6025913960400191505060405180910390fd5b6001600160a01b03821661074e5760405162461bcd60e51b81526004018080602001828103825260238152602001806108bc6023913960400191505060405180910390fd5b6107598383836108b6565b61079681604051806060016040528060268152602001610901602691396001600160a01b038616600090815260208190526040902054919061081f565b6001600160a01b0380851660009081526020819052604080822093909355908416815220546107c59082610573565b6001600160a01b038084166000818152602081815260409182902094909455805185815290519193928716927fddf252ad1be2c89b69c2b068fc378daa952ba7f163c4a11628f55a4df523b3ef92918290030190a3505050565b600081848411156108ae5760405162461bcd60e51b81526004018080602001828103825283818151815260200191508051906020019080838360005b8381101561087357818101518382015260200161085b565b50505050905090810190601f1680156108a05780820380516001836020036101000a031916815260200191505b509250505060405180910390fd5b505050900390565b50505056fe45524332303a207472616e7366657220746f20746865207a65726f206164647265737345524332303a20617070726f766520746f20746865207a65726f206164647265737345524332303a207472616e7366657220616d6f756e7420657863656564732062616c616e636545524332303a207472616e7366657220616d6f756e74206578636565647320616c6c6f77616e636545524332303a207472616e736665722066726f6d20746865207a65726f206164647265737345524332303a20617070726f76652066726f6d20746865207a65726f206164647265737345524332303a2064656372656173656420616c6c6f77616e63652062656c6f77207a65726fa2646970667358221220ff5bf5b975d516c4ced61f8befb16e73503d5da79af5073159be011e343293cb64736f6c634300060c0033a2646970667358221220c5fd4d7595bdb3621c5de7f77cc16ef1076d9a244a4a38f8a92e4b19a39fa47364736f6c634300060c0033",
  "devdoc": {
    "kind": "dev",
    "methods": {},
    "version": 1
  },
  "userdoc": {
    "kind": "user",
    "methods": {},
    "version": 1
  },
  "storageLayout": {
    "storage": [
      {
        "astId": 2234,
        "contract": "contracts/ERC20TokenFactory.sol:ERC20TokenFactory",
        "label": "lastDeployedContract",
        "offset": 0,
        "slot": "0",
        "type": "t_mapping(t_address,t_address)"
      },
      {
        "astId": 2237,
        "contract": "contracts/ERC20TokenFactory.sol:ERC20TokenFactory",
        "label": "contracts",
        "offset": 0,
        "slot": "1",
        "type": "t_array(t_struct(tokenStruct)2230_storage)dyn_storage"
      }
    ],
    "types": {
      "t_address": {
        "encoding": "inplace",
        "label": "address",
        "numberOfBytes": "20"
      },
      "t_array(t_struct(tokenStruct)2230_storage)dyn_storage": {
        "base": "t_struct(tokenStruct)2230_storage",
        "encoding": "dynamic_array",
        "label": "struct ERC20TokenFactory.tokenStruct[]",
        "numberOfBytes": "32"
      },
      "t_mapping(t_address,t_address)": {
        "encoding": "mapping",
        "key": "t_address",
        "label": "mapping(address => address)",
        "numberOfBytes": "32",
        "value": "t_address"
      },
      "t_string_storage": {
        "encoding": "bytes",
        "label": "string",
        "numberOfBytes": "32"
      },
      "t_struct(tokenStruct)2230_storage": {
        "encoding": "inplace",
        "label": "struct ERC20TokenFactory.tokenStruct",
        "members": [
          {
            "astId": 2225,
            "contract": "contracts/ERC20TokenFactory.sol:ERC20TokenFactory",
            "label": "_symbol",
            "offset": 0,
            "slot": "0",
            "type": "t_string_storage"
          },
          {
            "astId": 2227,
            "contract": "contracts/ERC20TokenFactory.sol:ERC20TokenFactory",
            "label": "_name",
            "offset": 0,
            "slot": "1",
            "type": "t_string_storage"
          },
          {
            "astId": 2229,
            "contract": "contracts/ERC20TokenFactory.sol:ERC20TokenFactory",
            "label": "_address",
            "offset": 0,
            "slot": "2",
            "type": "t_address"
          }
        ],
        "numberOfBytes": "96"
      }
    }
  }
}