{
  "address": "0xB6d131e6A31aE59C72355D862072AE2b70B868A2",
  "abi": [
    {
      "inputs": [
        {
          "internalType": "string",
          "name": "_tokenLaunchName",
          "type": "string"
        },
        {
          "internalType": "uint256",
          "name": "quantity",
          "type": "uint256"
        }
      ],
      "name": "fundTokenLaunchCampaign",
      "outputs": [],
      "stateMutability": "nonpayable",
      "type": "function"
    },
    {
      "inputs": [],
      "name": "getListOfTokenLaunchCampaigns",
      "outputs": [
        {
          "components": [
            {
              "internalType": "address",
              "name": "_tokenAddr",
              "type": "address"
            },
            {
              "internalType": "uint256",
              "name": "_quantityEarlyUsersPool",
              "type": "uint256"
            },
            {
              "internalType": "uint256",
              "name": "_quantityLiquidityPool",
              "type": "uint256"
            },
            {
              "internalType": "uint256",
              "name": "_expiringDay",
              "type": "uint256"
            },
            {
              "internalType": "address",
              "name": "_campaignOwner",
              "type": "address"
            },
            {
              "internalType": "address",
              "name": "_temporaryLiquidityToken",
              "type": "address"
            },
            {
              "internalType": "string",
              "name": "_launchName",
              "type": "string"
            }
          ],
          "internalType": "struct ERC20TokenLauncher.tokenLaunchCampaignStruct[]",
          "name": "",
          "type": "tuple[]"
        }
      ],
      "stateMutability": "view",
      "type": "function"
    },
    {
      "inputs": [
        {
          "internalType": "string",
          "name": "_tokenLaunchName",
          "type": "string"
        },
        {
          "internalType": "uint256",
          "name": "quantity",
          "type": "uint256"
        }
      ],
      "name": "receivefundFromTokenLaunchCampaign",
      "outputs": [],
      "stateMutability": "nonpayable",
      "type": "function"
    },
    {
      "inputs": [],
      "name": "resetButton",
      "outputs": [],
      "stateMutability": "nonpayable",
      "type": "function"
    },
    {
      "inputs": [
        {
          "internalType": "address",
          "name": "_tokenAddr",
          "type": "address"
        },
        {
          "internalType": "uint128",
          "name": "_percentageEarlyUsersPool",
          "type": "uint128"
        },
        {
          "internalType": "uint128",
          "name": "_percentageLiquidityPool",
          "type": "uint128"
        },
        {
          "internalType": "uint128",
          "name": "_daysBeforeExpiring",
          "type": "uint128"
        },
        {
          "internalType": "string",
          "name": "_tokenLaunchName",
          "type": "string"
        }
      ],
      "name": "setUpTokenLaunchCampaign",
      "outputs": [],
      "stateMutability": "nonpayable",
      "type": "function"
    },
    {
      "inputs": [
        {
          "internalType": "string",
          "name": "",
          "type": "string"
        }
      ],
      "name": "tokenLaunchCampaign",
      "outputs": [
        {
          "internalType": "address",
          "name": "_tokenAddr",
          "type": "address"
        },
        {
          "internalType": "uint256",
          "name": "_quantityEarlyUsersPool",
          "type": "uint256"
        },
        {
          "internalType": "uint256",
          "name": "_quantityLiquidityPool",
          "type": "uint256"
        },
        {
          "internalType": "uint256",
          "name": "_expiringDay",
          "type": "uint256"
        },
        {
          "internalType": "address",
          "name": "_campaignOwner",
          "type": "address"
        },
        {
          "internalType": "address",
          "name": "_temporaryLiquidityToken",
          "type": "address"
        },
        {
          "internalType": "string",
          "name": "_launchName",
          "type": "string"
        }
      ],
      "stateMutability": "view",
      "type": "function"
    }
  ],
  "transactionHash": "0xbc44d98164fb9c199a265e1d62486482f906e57a98832dd4349d78dae25fe053",
  "args": [],
  "solcInputHash": "d040e82217ba1ae64db175442e00ebfd",
  "bytecode": "0x608060405234801561001057600080fd5b506123d7806100206000396000f3fe60806040523480156200001157600080fd5b50600436106200006a5760003560e01c806304568d48146200006f5780630b901dbe146200007b578063179f5c791462000092578063402e858214620000a9578063a0afa28a14620000cb578063ed84968a14620000f7575b600080fd5b620000796200010e565b005b620000796200008c36600462000fd6565b6200011e565b62000079620000a336600462000fd6565b62000299565b620000b362000500565b604051620000c291906200114c565b60405180910390f35b620000e2620000dc36600462000f97565b62000640565b604051620000c29796959493929190620010f8565b620000796200010836600462000ed2565b6200072c565b6200011c6001600062000c81565b565b60008260405162000130919062001071565b908152604051908190036020019020600401546001600160a01b0316620001745760405162461bcd60e51b81526004016200016b9062001258565b60405180910390fd5b6040516323b872dd60e01b8152734861825e75ab14553e5af711ebbe6873d369d1469081906323b872dd90620001b390339030908790600401620010bb565b602060405180830381600087803b158015620001ce57600080fd5b505af1158015620001e3573d6000803e3d6000fd5b505050506040513d601f19601f8201168201806040525081019062000209919062000f6e565b50600080846040516200021d919062001071565b908152604051908190036020018120600501546340c10f1960e01b82526001600160a01b0316915081906340c10f19906200025f9033908790600401620010df565b600060405180830381600087803b1580156200027a57600080fd5b505af11580156200028f573d6000803e3d6000fd5b5050505050505050565b600082604051620002ab919062001071565b9081526020016040518091039020600301544211620002c957600080fd5b60008083604051620002dc919062001071565b908152602001604051809103902060050160009054906101000a90046001600160a01b031690506000816001600160a01b03166318160ddd6040518163ffffffff1660e01b815260040160206040518083038186803b1580156200033f57600080fd5b505afa15801562000354573d6000803e3d6000fd5b505050506040513d601f19601f820116820180604052508101906200037a91906200101d565b83670de0b6b3a764000002816200038d57fe5b04600085604051620003a0919062001071565b90815260200160405180910390206001015402905080600085604051620003c8919062001071565b9081526040519081900360200181206001018054929092039091556000908190620003f590879062001071565b9081526040519081900360200181205463a9059cbb60e01b82526001600160a01b03169150819063a9059cbb90620004349033908690600401620010df565b602060405180830381600087803b1580156200044f57600080fd5b505af115801562000464573d6000803e3d6000fd5b505050506040513d601f19601f820116820180604052508101906200048a919062000f6e565b5060405163079cc67960e41b81526001600160a01b038416906379cc679090620004c5903390670de0b6b3a7640000890290600401620010df565b600060405180830381600087803b158015620004e057600080fd5b505af1158015620004f5573d6000803e3d6000fd5b505050505050505050565b60606001805480602002602001604051908101604052809291908181526020016000905b82821015620006375760008481526020908190206040805160e0810182526007860290920180546001600160a01b039081168452600180830154858701526002808401548686015260038401546060870152600484015483166080870152600584015490921660a086015260068301805485516101009382161593909302600019011692909204601f81018790048702820187019094528381529394919360c086019390928301828280156200061e5780601f10620005f2576101008083540402835291602001916200061e565b820191906000526020600020905b8154815290600101906020018083116200060057829003601f168201915b5050505050815250508152602001906001019062000524565b50505050905090565b805180820160209081018051600082529282019382019390932091909252805460018083015460028085015460038601546004870154600588015460068901805460408051601f6000199b841615610100029b909b01909216979097049889018c90048c0281018c019096528786526001600160a01b039889169a969994989397928416969190931694929190830182828015620007225780601f10620006f65761010080835404028352916020019162000722565b820191906000526020600020905b8154815290600101906020018083116200070457829003601f168201915b5050505050905087565b6000846001600160801b03161180156200074f57506064846001600160801b0316105b6200075957600080fd5b6000836001600160801b03161180156200077c57506064836001600160801b0316105b6200078657600080fd5b6000826001600160801b0316118015620007a9575060b4836001600160801b0316105b620007b357600080fd5b600081604051620007c5919062001071565b908152604051908190036020019020600401546001600160a01b031615806200081c5750600081604051620007fb919062001071565b90815260405190819003602001902060040154336001600160a01b03909116145b6200082657600080fd5b60008590506000816001600160a01b03166318160ddd6040518163ffffffff1660e01b815260040160206040518083038186803b1580156200086757600080fd5b505afa1580156200087c573d6000803e3d6000fd5b505050506040513d601f19601f82011682018060405250810190620008a291906200101d565b9050606083604051602001620008b991906200108f565b60405160208183030381529060405290506000818230604051620008dd9062000ca7565b620008eb9392919062001216565b604051809103906000f08015801562000908573d6000803e3d6000fd5b5090506200091562000cb5565b60c081018690526001600160a01b038516815260646001600160801b038a16850204602082015260646001600160801b038916850204604080830191909152426001600160801b03620151808a02160160608301523360808301526001600160a01b03831660a08301525181906000906200099290899062001071565b9081526040805160209281900383019020835181546001600160a01b03199081166001600160a01b03928316178355858501516001840155928501516002830155606085015160038301556080850151600483018054851691831691909117905560a085015160058301805490941691161790915560c08301518051919262000a249260068501929091019062000d0d565b5050600180548082018255600091909152825160079091027fb10e2d527612073b26eecdfd717e6a320cf44b4afac2b0732d9fcbe2b7fa0cf6810180546001600160a01b039384166001600160a01b03199182161782556020808701517fb10e2d527612073b26eecdfd717e6a320cf44b4afac2b0732d9fcbe2b7fa0cf785015560408701517fb10e2d527612073b26eecdfd717e6a320cf44b4afac2b0732d9fcbe2b7fa0cf885015560608701517fb10e2d527612073b26eecdfd717e6a320cf44b4afac2b0732d9fcbe2b7fa0cf985015560808701517fb10e2d527612073b26eecdfd717e6a320cf44b4afac2b0732d9fcbe2b7fa0cfa8501805491871691841691909117905560a08701517fb10e2d527612073b26eecdfd717e6a320cf44b4afac2b0732d9fcbe2b7fa0cfb850180549190961692169190911790935560c08501518051869550919362000ba1937fb10e2d527612073b26eecdfd717e6a320cf44b4afac2b0732d9fcbe2b7fa0cfc019291019062000d0d565b505050846001600160a01b03166323b872dd333060008a60405162000bc7919062001071565b90815260200160405180910390206002015460008b60405162000beb919062001071565b908152602001604051809103902060010154016040518463ffffffff1660e01b815260040162000c1e93929190620010bb565b602060405180830381600087803b15801562000c3957600080fd5b505af115801562000c4e573d6000803e3d6000fd5b505050506040513d601f19601f8201168201806040525081019062000c74919062000f6e565b5050505050505050505050565b508054600082556007029060005260206000209081019062000ca4919062000d92565b50565b6110b880620012ea83390190565b6040518060e0016040528060006001600160a01b0316815260200160008152602001600081526020016000815260200160006001600160a01b0316815260200160006001600160a01b03168152602001606081525090565b828054600181600116156101000203166002900490600052602060002090601f016020900481019282601f1062000d5057805160ff191683800117855562000d80565b8280016001018555821562000d80579182015b8281111562000d8057825182559160200191906001019062000d63565b5062000d8e92915062000df1565b5090565b8082111562000d8e5780546001600160a01b0319908116825560006001830181905560028301819055600383018190556004830180548316905560058301805490921690915562000de7600683018262000e08565b5060070162000d92565b5b8082111562000d8e576000815560010162000df2565b50805460018160011615610100020316600290046000825580601f1062000e30575062000ca4565b601f01602090049060005260206000209081019062000ca4919062000df1565b600082601f83011262000e61578081fd5b813567ffffffffffffffff8082111562000e79578283fd5b604051601f8301601f19168101602001828111828210171562000e9a578485fd5b60405282815292508284830160200186101562000eb657600080fd5b8260208601602083013760006020848301015250505092915050565b600080600080600060a0868803121562000eea578081fd5b85356001600160a01b038116811462000f01578182fd5b9450602086013562000f1381620012d3565b9350604086013562000f2581620012d3565b9250606086013562000f3781620012d3565b9150608086013567ffffffffffffffff81111562000f53578182fd5b62000f618882890162000e50565b9150509295509295909350565b60006020828403121562000f80578081fd5b8151801515811462000f90578182fd5b9392505050565b60006020828403121562000fa9578081fd5b813567ffffffffffffffff81111562000fc0578182fd5b62000fce8482850162000e50565b949350505050565b6000806040838503121562000fe9578182fd5b823567ffffffffffffffff81111562001000578283fd5b6200100e8582860162000e50565b95602094909401359450505050565b6000602082840312156200102f578081fd5b5051919050565b6001600160a01b03169052565b600081518084526200105d816020860160208601620012a0565b601f01601f19169290920160200192915050565b6000825162001085818460208701620012a0565b9190910192915050565b6000611d1b60f21b82528251620010ae816002850160208701620012a0565b9190910160020192915050565b6001600160a01b039384168152919092166020820152604081019190915260600190565b6001600160a01b03929092168252602082015260400190565b600060018060a01b03808a168352886020840152876040840152866060840152808616608084015280851660a08401525060e060c08301526200113f60e083018462001043565b9998505050505050505050565b60208082528251828201819052600091906040908185019080840286018301878501865b838110156200120857603f19898403018552815160e06200119385835162001036565b81890151858a0152878201518886015260608083015190860152608080830151620011c18288018262001036565b505060a080830151620011d78288018262001036565b505060c091820151918501819052620011f38582018362001043565b96890196945050509086019060010162001170565b509098975050505050505050565b6000606082526200122b606083018662001043565b82810360208401526200123f818662001043565b91505060018060a01b0383166040830152949350505050565b60208082526028908201527f4c61756e636843616d706169676e20686173206e6f74206265656e20617070726040820152671bdd9959081e595d60c21b606082015260800190565b60005b83811015620012bd578181015183820152602001620012a3565b83811115620012cd576000848401525b50505050565b6001600160801b038116811462000ca457600080fdfe60806040523480156200001157600080fd5b50604051620010b8380380620010b8833981810160405260608110156200003757600080fd5b81019080805160405193929190846401000000008211156200005857600080fd5b9083019060208201858111156200006e57600080fd5b82516401000000008111828201881017156200008957600080fd5b82525081516020918201929091019080838360005b83811015620000b85781810151838201526020016200009e565b50505050905090810190601f168015620000e65780820380516001836020036101000a031916815260200191505b50604052602001805160405193929190846401000000008211156200010a57600080fd5b9083019060208201858111156200012057600080fd5b82516401000000008111828201881017156200013b57600080fd5b82525081516020918201929091019080838360005b838110156200016a57818101518382015260200162000150565b50505050905090810190601f168015620001985780820380516001836020036101000a031916815260200191505b5060405260209081015185519093508592508491620001bd9160039185019062000210565b508051620001d390600490602084019062000210565b5050600580546001600160a01b0390931661010002610100600160a81b031960ff19909416601217939093169290921790915550620002ac915050565b828054600181600116156101000203166002900490600052602060002090601f016020900481019282601f106200025357805160ff191683800117855562000283565b8280016001018555821562000283579182015b828111156200028357825182559160200191906001019062000266565b506200029192915062000295565b5090565b5b8082111562000291576000815560010162000296565b610dfc80620002bc6000396000f3fe608060405234801561001057600080fd5b50600436106100ea5760003560e01c806342966c681161008c57806395d89b411161006657806395d89b41146102e3578063a457c2d7146102eb578063a9059cbb14610317578063dd62ed3e14610343576100ea565b806342966c681461027457806370a082311461029157806379cc6790146102b7576100ea565b806323b872dd116100c857806323b872dd146101c6578063313ce567146101fc578063395093511461021a57806340c10f1914610246576100ea565b806306fdde03146100ef578063095ea7b31461016c57806318160ddd146101ac575b600080fd5b6100f7610371565b6040805160208082528351818301528351919283929083019185019080838360005b83811015610131578181015183820152602001610119565b50505050905090810190601f16801561015e5780820380516001836020036101000a031916815260200191505b509250505060405180910390f35b6101986004803603604081101561018257600080fd5b506001600160a01b038135169060200135610407565b604080519115158252519081900360200190f35b6101b4610424565b60408051918252519081900360200190f35b610198600480360360608110156101dc57600080fd5b506001600160a01b0381358116916020810135909116906040013561042a565b6102046104b1565b6040805160ff9092168252519081900360200190f35b6101986004803603604081101561023057600080fd5b506001600160a01b0381351690602001356104ba565b6102726004803603604081101561025c57600080fd5b506001600160a01b038135169060200135610508565b005b6102726004803603602081101561028a57600080fd5b5035610541565b6101b4600480360360208110156102a757600080fd5b50356001600160a01b0316610555565b610272600480360360408110156102cd57600080fd5b506001600160a01b038135169060200135610570565b6100f76105ca565b6101986004803603604081101561030157600080fd5b506001600160a01b03813516906020013561062b565b6101986004803603604081101561032d57600080fd5b506001600160a01b038135169060200135610693565b6101b46004803603604081101561035957600080fd5b506001600160a01b03813581169160200135166106a7565b60038054604080516020601f60026000196101006001881615020190951694909404938401819004810282018101909252828152606093909290918301828280156103fd5780601f106103d2576101008083540402835291602001916103fd565b820191906000526020600020905b8154815290600101906020018083116103e057829003601f168201915b5050505050905090565b600061041b6104146106d2565b84846106d6565b50600192915050565b60025490565b60006104378484846107c2565b6104a7846104436106d2565b6104a285604051806060016040528060288152602001610cec602891396001600160a01b038a166000908152600160205260408120906104816106d2565b6001600160a01b03168152602081019190915260400160002054919061091d565b6106d6565b5060019392505050565b60055460ff1690565b600061041b6104c76106d2565b846104a285600160006104d86106d2565b6001600160a01b03908116825260208083019390935260409182016000908120918c1681529252902054906109b4565b60055461010090046001600160a01b0316331461052457600080fd5b61053d826105306104b1565b60ff16600a0a8302610a15565b5050565b61055261054c6106d2565b82610b05565b50565b6001600160a01b031660009081526020819052604090205490565b60006105a782604051806060016040528060248152602001610d14602491396105a08661059b6106d2565b6106a7565b919061091d565b90506105bb836105b56106d2565b836106d6565b6105c58383610b05565b505050565b60048054604080516020601f60026000196101006001881615020190951694909404938401819004810282018101909252828152606093909290918301828280156103fd5780601f106103d2576101008083540402835291602001916103fd565b600061041b6106386106d2565b846104a285604051806060016040528060258152602001610da260259139600160006106626106d2565b6001600160a01b03908116825260208083019390935260409182016000908120918d1681529252902054919061091d565b600061041b6106a06106d2565b84846107c2565b6001600160a01b03918216600090815260016020908152604080832093909416825291909152205490565b3390565b6001600160a01b03831661071b5760405162461bcd60e51b8152600401808060200182810382526024815260200180610d7e6024913960400191505060405180910390fd5b6001600160a01b0382166107605760405162461bcd60e51b8152600401808060200182810382526022815260200180610ca46022913960400191505060405180910390fd5b6001600160a01b03808416600081815260016020908152604080832094871680845294825291829020859055815185815291517f8c5be1e5ebec7d5bd14f71427d1e84f3dd0314c0f7b2291e5b200ac8c7c3b9259281900390910190a3505050565b6001600160a01b0383166108075760405162461bcd60e51b8152600401808060200182810382526025815260200180610d596025913960400191505060405180910390fd5b6001600160a01b03821661084c5760405162461bcd60e51b8152600401808060200182810382526023815260200180610c5f6023913960400191505060405180910390fd5b6108578383836105c5565b61089481604051806060016040528060268152602001610cc6602691396001600160a01b038616600090815260208190526040902054919061091d565b6001600160a01b0380851660009081526020819052604080822093909355908416815220546108c390826109b4565b6001600160a01b038084166000818152602081815260409182902094909455805185815290519193928716927fddf252ad1be2c89b69c2b068fc378daa952ba7f163c4a11628f55a4df523b3ef92918290030190a3505050565b600081848411156109ac5760405162461bcd60e51b81526004018080602001828103825283818151815260200191508051906020019080838360005b83811015610971578181015183820152602001610959565b50505050905090810190601f16801561099e5780820380516001836020036101000a031916815260200191505b509250505060405180910390fd5b505050900390565b600082820183811015610a0e576040805162461bcd60e51b815260206004820152601b60248201527f536166654d6174683a206164646974696f6e206f766572666c6f770000000000604482015290519081900360640190fd5b9392505050565b6001600160a01b038216610a70576040805162461bcd60e51b815260206004820152601f60248201527f45524332303a206d696e7420746f20746865207a65726f206164647265737300604482015290519081900360640190fd5b610a7c600083836105c5565b600254610a8990826109b4565b6002556001600160a01b038216600090815260208190526040902054610aaf90826109b4565b6001600160a01b0383166000818152602081815260408083209490945583518581529351929391927fddf252ad1be2c89b69c2b068fc378daa952ba7f163c4a11628f55a4df523b3ef9281900390910190a35050565b6001600160a01b038216610b4a5760405162461bcd60e51b8152600401808060200182810382526021815260200180610d386021913960400191505060405180910390fd5b610b56826000836105c5565b610b9381604051806060016040528060228152602001610c82602291396001600160a01b038516600090815260208190526040902054919061091d565b6001600160a01b038316600090815260208190526040902055600254610bb99082610c01565b6002556040805182815290516000916001600160a01b038516917fddf252ad1be2c89b69c2b068fc378daa952ba7f163c4a11628f55a4df523b3ef9181900360200190a35050565b600082821115610c58576040805162461bcd60e51b815260206004820152601e60248201527f536166654d6174683a207375627472616374696f6e206f766572666c6f770000604482015290519081900360640190fd5b5090039056fe45524332303a207472616e7366657220746f20746865207a65726f206164647265737345524332303a206275726e20616d6f756e7420657863656564732062616c616e636545524332303a20617070726f766520746f20746865207a65726f206164647265737345524332303a207472616e7366657220616d6f756e7420657863656564732062616c616e636545524332303a207472616e7366657220616d6f756e74206578636565647320616c6c6f77616e636545524332303a206275726e20616d6f756e74206578636565647320616c6c6f77616e636545524332303a206275726e2066726f6d20746865207a65726f206164647265737345524332303a207472616e736665722066726f6d20746865207a65726f206164647265737345524332303a20617070726f76652066726f6d20746865207a65726f206164647265737345524332303a2064656372656173656420616c6c6f77616e63652062656c6f77207a65726fa264697066735822122085f23da5b3616d1477ea1c0e47034736c609a17e8be075f3d759708174c7bac464736f6c634300060c0033a26469706673582212207e6fad6b28cb8752bca639797c7a38b9078124ac531de8864d88794dc70c950864736f6c634300060c0033",
  "devdoc": {
    "kind": "dev",
    "methods": {},
    "version": 1
  },
  "userdoc": {
    "kind": "user",
    "methods": {},
    "version": 1
  },
  "storageLayout": {
    "storage": [
      {
        "astId": 2359,
        "contract": "contracts/ERC20TokenLauncher.sol:ERC20TokenLauncher",
        "label": "tokenLaunchCampaign",
        "offset": 0,
        "slot": "0",
        "type": "t_mapping(t_string_memory_ptr,t_struct(tokenLaunchCampaignStruct)2355_storage)"
      },
      {
        "astId": 2362,
        "contract": "contracts/ERC20TokenLauncher.sol:ERC20TokenLauncher",
        "label": "listOfTokenLaunchCampaigns",
        "offset": 0,
        "slot": "1",
        "type": "t_array(t_struct(tokenLaunchCampaignStruct)2355_storage)dyn_storage"
      }
    ],
    "types": {
      "t_address": {
        "encoding": "inplace",
        "label": "address",
        "numberOfBytes": "20"
      },
      "t_array(t_struct(tokenLaunchCampaignStruct)2355_storage)dyn_storage": {
        "base": "t_struct(tokenLaunchCampaignStruct)2355_storage",
        "encoding": "dynamic_array",
        "label": "struct ERC20TokenLauncher.tokenLaunchCampaignStruct[]",
        "numberOfBytes": "32"
      },
      "t_mapping(t_string_memory_ptr,t_struct(tokenLaunchCampaignStruct)2355_storage)": {
        "encoding": "mapping",
        "key": "t_string_memory_ptr",
        "label": "mapping(string => struct ERC20TokenLauncher.tokenLaunchCampaignStruct)",
        "numberOfBytes": "32",
        "value": "t_struct(tokenLaunchCampaignStruct)2355_storage"
      },
      "t_string_memory_ptr": {
        "encoding": "bytes",
        "label": "string",
        "numberOfBytes": "32"
      },
      "t_string_storage": {
        "encoding": "bytes",
        "label": "string",
        "numberOfBytes": "32"
      },
      "t_struct(tokenLaunchCampaignStruct)2355_storage": {
        "encoding": "inplace",
        "label": "struct ERC20TokenLauncher.tokenLaunchCampaignStruct",
        "members": [
          {
            "astId": 2342,
            "contract": "contracts/ERC20TokenLauncher.sol:ERC20TokenLauncher",
            "label": "_tokenAddr",
            "offset": 0,
            "slot": "0",
            "type": "t_address"
          },
          {
            "astId": 2344,
            "contract": "contracts/ERC20TokenLauncher.sol:ERC20TokenLauncher",
            "label": "_quantityEarlyUsersPool",
            "offset": 0,
            "slot": "1",
            "type": "t_uint256"
          },
          {
            "astId": 2346,
            "contract": "contracts/ERC20TokenLauncher.sol:ERC20TokenLauncher",
            "label": "_quantityLiquidityPool",
            "offset": 0,
            "slot": "2",
            "type": "t_uint256"
          },
          {
            "astId": 2348,
            "contract": "contracts/ERC20TokenLauncher.sol:ERC20TokenLauncher",
            "label": "_expiringDay",
            "offset": 0,
            "slot": "3",
            "type": "t_uint256"
          },
          {
            "astId": 2350,
            "contract": "contracts/ERC20TokenLauncher.sol:ERC20TokenLauncher",
            "label": "_campaignOwner",
            "offset": 0,
            "slot": "4",
            "type": "t_address"
          },
          {
            "astId": 2352,
            "contract": "contracts/ERC20TokenLauncher.sol:ERC20TokenLauncher",
            "label": "_temporaryLiquidityToken",
            "offset": 0,
            "slot": "5",
            "type": "t_address"
          },
          {
            "astId": 2354,
            "contract": "contracts/ERC20TokenLauncher.sol:ERC20TokenLauncher",
            "label": "_launchName",
            "offset": 0,
            "slot": "6",
            "type": "t_string_storage"
          }
        ],
        "numberOfBytes": "224"
      },
      "t_uint256": {
        "encoding": "inplace",
        "label": "uint256",
        "numberOfBytes": "32"
      }
    }
  }
}