{
  "address": "0x68b89480c73f90A8e954aEafDd6f2c6aC40426b9",
  "abi": [
    {
      "inputs": [
        {
          "internalType": "string",
          "name": "_tokenLaunchName",
          "type": "string"
        },
        {
          "internalType": "uint256",
          "name": "quantity",
          "type": "uint256"
        }
      ],
      "name": "fundTokenLaunchCampaign",
      "outputs": [],
      "stateMutability": "nonpayable",
      "type": "function"
    },
    {
      "inputs": [],
      "name": "getListOfTokenLaunchCampaignsPerUser",
      "outputs": [
        {
          "internalType": "string[]",
          "name": "",
          "type": "string[]"
        }
      ],
      "stateMutability": "view",
      "type": "function"
    },
    {
      "inputs": [
        {
          "internalType": "string",
          "name": "_tokenLaunchName",
          "type": "string"
        },
        {
          "internalType": "uint256",
          "name": "quantity",
          "type": "uint256"
        }
      ],
      "name": "receivefundFromTokenLaunchCampaign",
      "outputs": [],
      "stateMutability": "nonpayable",
      "type": "function"
    },
    {
      "inputs": [
        {
          "internalType": "address",
          "name": "_tokenAddr",
          "type": "address"
        },
        {
          "internalType": "uint128",
          "name": "_percentageEarlyUsersPool",
          "type": "uint128"
        },
        {
          "internalType": "uint128",
          "name": "_percentageLiquidityPool",
          "type": "uint128"
        },
        {
          "internalType": "uint128",
          "name": "_daysBeforeExpiring",
          "type": "uint128"
        },
        {
          "internalType": "string",
          "name": "_tokenLaunchName",
          "type": "string"
        }
      ],
      "name": "setUpTokenLaunchCampaign",
      "outputs": [],
      "stateMutability": "nonpayable",
      "type": "function"
    },
    {
      "inputs": [
        {
          "internalType": "string",
          "name": "",
          "type": "string"
        }
      ],
      "name": "tokenLaunchCampaign",
      "outputs": [
        {
          "internalType": "address",
          "name": "_tokenAddr",
          "type": "address"
        },
        {
          "internalType": "uint256",
          "name": "_quantityEarlyUsersPool",
          "type": "uint256"
        },
        {
          "internalType": "uint256",
          "name": "_quantityLiquidityPool",
          "type": "uint256"
        },
        {
          "internalType": "uint256",
          "name": "_expiringDay",
          "type": "uint256"
        },
        {
          "internalType": "address",
          "name": "_campaignOwner",
          "type": "address"
        },
        {
          "internalType": "address",
          "name": "_temporaryLiquidityToken",
          "type": "address"
        }
      ],
      "stateMutability": "view",
      "type": "function"
    }
  ],
  "transactionHash": "0xf05325420b598127423bfa8e2e3ab79853f4e02b08a89fdd888b95b01f55beec",
  "args": [],
  "solcInputHash": "6de4eecddbf6b976c9c72dde11e42126",
  "bytecode": "0x608060405234801561001057600080fd5b50611ff1806100206000396000f3fe60806040523480156200001157600080fd5b50600436106200005e5760003560e01c80630b901dbe146200006357806313fd6224146200007c578063179f5c79146200009e578063a0afa28a14620000b5578063ed84968a14620000e0575b600080fd5b6200007a6200007436600462000c7a565b620000f7565b005b620000866200027c565b60405162000095919062000dc9565b60405180910390f35b6200007a620000af36600462000c7a565b62000365565b620000cc620000c636600462000c3b565b620005cc565b604051620000959695949392919062000d8f565b6200007a620000f136600462000b76565b6200061b565b60008260405162000109919062000d08565b908152604051908190036020019020600401546001600160a01b03166200014d5760405162461bcd60e51b8152600401620001449062000e6f565b60405180910390fd5b6040516323b872dd60e01b8152734861825e75ab14553e5af711ebbe6873d369d1469081906323b872dd90620001969033903090670de0b6b3a764000088029060040162000d52565b602060405180830381600087803b158015620001b157600080fd5b505af1158015620001c6573d6000803e3d6000fd5b505050506040513d601f19601f82011682018060405250810190620001ec919062000c12565b506000808460405162000200919062000d08565b908152604051908190036020018120600501546340c10f1960e01b82526001600160a01b0316915081906340c10f199062000242903390879060040162000d76565b600060405180830381600087803b1580156200025d57600080fd5b505af115801562000272573d6000803e3d6000fd5b5050505050505050565b336000908152600160209081526040808320805482518185028101850190935280835260609492939192909184015b828210156200035c5760008481526020908190208301805460408051601f6002600019610100600187161502019094169390930492830185900485028101850190915281815292830182828015620003475780601f106200031b5761010080835404028352916020019162000347565b820191906000526020600020905b8154815290600101906020018083116200032957829003601f168201915b505050505081526020019060010190620002ab565b50505050905090565b60008260405162000377919062000d08565b90815260200160405180910390206003015442116200039557600080fd5b60008083604051620003a8919062000d08565b908152602001604051809103902060050160009054906101000a90046001600160a01b031690506000816001600160a01b03166318160ddd6040518163ffffffff1660e01b815260040160206040518083038186803b1580156200040b57600080fd5b505afa15801562000420573d6000803e3d6000fd5b505050506040513d601f19601f8201168201806040525081019062000446919062000cc1565b83670de0b6b3a764000002816200045957fe5b046000856040516200046c919062000d08565b9081526020016040518091039020600101540290508060008560405162000494919062000d08565b9081526040519081900360200181206001018054929092039091556000908190620004c190879062000d08565b9081526040519081900360200181205463a9059cbb60e01b82526001600160a01b03169150819063a9059cbb9062000500903390869060040162000d76565b602060405180830381600087803b1580156200051b57600080fd5b505af115801562000530573d6000803e3d6000fd5b505050506040513d601f19601f8201168201806040525081019062000556919062000c12565b5060405163079cc67960e41b81526001600160a01b038416906379cc67909062000591903390670de0b6b3a764000089029060040162000d76565b600060405180830381600087803b158015620005ac57600080fd5b505af1158015620005c1573d6000803e3d6000fd5b505050505050505050565b80516020818301810180516000825292820191909301209152805460018201546002830154600384015460048501546005909501546001600160a01b0394851695939492939192918216911686565b6000846001600160801b03161180156200063e57506064846001600160801b0316105b6200064857600080fd5b6000836001600160801b03161180156200066b57506064836001600160801b0316105b6200067557600080fd5b60008160405162000687919062000d08565b908152604051908190036020019020600401546001600160a01b03161580620006de5750600081604051620006bd919062000d08565b90815260405190819003602001902060040154336001600160a01b03909116145b620006e857600080fd5b6000856001600160a01b03166318160ddd6040518163ffffffff1660e01b815260040160206040518083038186803b1580156200072457600080fd5b505afa15801562000739573d6000803e3d6000fd5b505050506040513d601f19601f820116820180604052508101906200075f919062000cc1565b33600090815260016020818152604083208054928301815583529182902085519394506200079393910191850190620009f9565b50606082604051602001620007a9919062000d26565b60405160208183030381529060405290506000818230604051620007cd9062000a7e565b620007db9392919062000e2d565b604051809103906000f080158015620007f8573d6000803e3d6000fd5b5090506200080562000a8c565b6001600160a01b038916815260646001600160801b038916850204602082015260646001600160801b038816850204604080830191909152426001600160801b03620151808902160160608301523360808301526001600160a01b03831660a08301525181906000906200087b90889062000d08565b9081526040805160209281900383018120845181546001600160a01b03199081166001600160a01b03928316178355948601516001830155928501516002820155606085015160038201556080850151600482018054861691851691909117905560a090940151600590940180549093169390911692909217905560009081906200090890889062000d08565b908152604051908190036020018120546001600160a01b0316915081906323b872dd90339030906000906200093f908c9062000d08565b90815260200160405180910390206002015460008b60405162000963919062000d08565b908152602001604051809103902060010154016040518463ffffffff1660e01b8152600401620009969392919062000d52565b602060405180830381600087803b158015620009b157600080fd5b505af1158015620009c6573d6000803e3d6000fd5b505050506040513d601f19601f82011682018060405250810190620009ec919062000c12565b5050505050505050505050565b828054600181600116156101000203166002900490600052602060002090601f016020900481019282601f1062000a3c57805160ff191683800117855562000a6c565b8280016001018555821562000a6c579182015b8281111562000a6c57825182559160200191906001019062000a4f565b5062000a7a92915062000add565b5090565b6110b88062000f0483390190565b6040518060c0016040528060006001600160a01b0316815260200160008152602001600081526020016000815260200160006001600160a01b0316815260200160006001600160a01b031681525090565b5b8082111562000a7a576000815560010162000ade565b600082601f83011262000b05578081fd5b813567ffffffffffffffff8082111562000b1d578283fd5b604051601f8301601f19168101602001828111828210171562000b3e578485fd5b60405282815292508284830160200186101562000b5a57600080fd5b8260208601602083013760006020848301015250505092915050565b600080600080600060a0868803121562000b8e578081fd5b85356001600160a01b038116811462000ba5578182fd5b9450602086013562000bb78162000eea565b9350604086013562000bc98162000eea565b9250606086013562000bdb8162000eea565b9150608086013567ffffffffffffffff81111562000bf7578182fd5b62000c058882890162000af4565b9150509295509295909350565b60006020828403121562000c24578081fd5b8151801515811462000c34578182fd5b9392505050565b60006020828403121562000c4d578081fd5b813567ffffffffffffffff81111562000c64578182fd5b62000c728482850162000af4565b949350505050565b6000806040838503121562000c8d578182fd5b823567ffffffffffffffff81111562000ca4578283fd5b62000cb28582860162000af4565b95602094909401359450505050565b60006020828403121562000cd3578081fd5b5051919050565b6000815180845262000cf481602086016020860162000eb7565b601f01601f19169290920160200192915050565b6000825162000d1c81846020870162000eb7565b9190910192915050565b6000611d1b60f21b8252825162000d4581600285016020870162000eb7565b9190910160020192915050565b6001600160a01b039384168152919092166020820152604081019190915260600190565b6001600160a01b03929092168252602082015260400190565b6001600160a01b0396871681526020810195909552604085019390935260608401919091528316608083015290911660a082015260c00190565b6000602080830181845280855180835260408601915060408482028701019250838701855b8281101562000e2057603f1988860301845262000e0d85835162000cda565b9450928501929085019060010162000dee565b5092979650505050505050565b60006060825262000e42606083018662000cda565b828103602084015262000e56818662000cda565b91505060018060a01b0383166040830152949350505050565b60208082526028908201527f4c61756e636843616d706169676e20686173206e6f74206265656e20617070726040820152671bdd9959081e595d60c21b606082015260800190565b60005b8381101562000ed457818101518382015260200162000eba565b8381111562000ee4576000848401525b50505050565b6001600160801b038116811462000f0057600080fd5b5056fe60806040523480156200001157600080fd5b50604051620010b8380380620010b8833981810160405260608110156200003757600080fd5b81019080805160405193929190846401000000008211156200005857600080fd5b9083019060208201858111156200006e57600080fd5b82516401000000008111828201881017156200008957600080fd5b82525081516020918201929091019080838360005b83811015620000b85781810151838201526020016200009e565b50505050905090810190601f168015620000e65780820380516001836020036101000a031916815260200191505b50604052602001805160405193929190846401000000008211156200010a57600080fd5b9083019060208201858111156200012057600080fd5b82516401000000008111828201881017156200013b57600080fd5b82525081516020918201929091019080838360005b838110156200016a57818101518382015260200162000150565b50505050905090810190601f168015620001985780820380516001836020036101000a031916815260200191505b5060405260209081015185519093508592508491620001bd9160039185019062000210565b508051620001d390600490602084019062000210565b5050600580546001600160a01b0390931661010002610100600160a81b031960ff19909416601217939093169290921790915550620002ac915050565b828054600181600116156101000203166002900490600052602060002090601f016020900481019282601f106200025357805160ff191683800117855562000283565b8280016001018555821562000283579182015b828111156200028357825182559160200191906001019062000266565b506200029192915062000295565b5090565b5b8082111562000291576000815560010162000296565b610dfc80620002bc6000396000f3fe608060405234801561001057600080fd5b50600436106100ea5760003560e01c806342966c681161008c57806395d89b411161006657806395d89b41146102e3578063a457c2d7146102eb578063a9059cbb14610317578063dd62ed3e14610343576100ea565b806342966c681461027457806370a082311461029157806379cc6790146102b7576100ea565b806323b872dd116100c857806323b872dd146101c6578063313ce567146101fc578063395093511461021a57806340c10f1914610246576100ea565b806306fdde03146100ef578063095ea7b31461016c57806318160ddd146101ac575b600080fd5b6100f7610371565b6040805160208082528351818301528351919283929083019185019080838360005b83811015610131578181015183820152602001610119565b50505050905090810190601f16801561015e5780820380516001836020036101000a031916815260200191505b509250505060405180910390f35b6101986004803603604081101561018257600080fd5b506001600160a01b038135169060200135610407565b604080519115158252519081900360200190f35b6101b4610424565b60408051918252519081900360200190f35b610198600480360360608110156101dc57600080fd5b506001600160a01b0381358116916020810135909116906040013561042a565b6102046104b1565b6040805160ff9092168252519081900360200190f35b6101986004803603604081101561023057600080fd5b506001600160a01b0381351690602001356104ba565b6102726004803603604081101561025c57600080fd5b506001600160a01b038135169060200135610508565b005b6102726004803603602081101561028a57600080fd5b5035610541565b6101b4600480360360208110156102a757600080fd5b50356001600160a01b0316610555565b610272600480360360408110156102cd57600080fd5b506001600160a01b038135169060200135610570565b6100f76105ca565b6101986004803603604081101561030157600080fd5b506001600160a01b03813516906020013561062b565b6101986004803603604081101561032d57600080fd5b506001600160a01b038135169060200135610693565b6101b46004803603604081101561035957600080fd5b506001600160a01b03813581169160200135166106a7565b60038054604080516020601f60026000196101006001881615020190951694909404938401819004810282018101909252828152606093909290918301828280156103fd5780601f106103d2576101008083540402835291602001916103fd565b820191906000526020600020905b8154815290600101906020018083116103e057829003601f168201915b5050505050905090565b600061041b6104146106d2565b84846106d6565b50600192915050565b60025490565b60006104378484846107c2565b6104a7846104436106d2565b6104a285604051806060016040528060288152602001610cec602891396001600160a01b038a166000908152600160205260408120906104816106d2565b6001600160a01b03168152602081019190915260400160002054919061091d565b6106d6565b5060019392505050565b60055460ff1690565b600061041b6104c76106d2565b846104a285600160006104d86106d2565b6001600160a01b03908116825260208083019390935260409182016000908120918c1681529252902054906109b4565b60055461010090046001600160a01b0316331461052457600080fd5b61053d826105306104b1565b60ff16600a0a8302610a15565b5050565b61055261054c6106d2565b82610b05565b50565b6001600160a01b031660009081526020819052604090205490565b60006105a782604051806060016040528060248152602001610d14602491396105a08661059b6106d2565b6106a7565b919061091d565b90506105bb836105b56106d2565b836106d6565b6105c58383610b05565b505050565b60048054604080516020601f60026000196101006001881615020190951694909404938401819004810282018101909252828152606093909290918301828280156103fd5780601f106103d2576101008083540402835291602001916103fd565b600061041b6106386106d2565b846104a285604051806060016040528060258152602001610da260259139600160006106626106d2565b6001600160a01b03908116825260208083019390935260409182016000908120918d1681529252902054919061091d565b600061041b6106a06106d2565b84846107c2565b6001600160a01b03918216600090815260016020908152604080832093909416825291909152205490565b3390565b6001600160a01b03831661071b5760405162461bcd60e51b8152600401808060200182810382526024815260200180610d7e6024913960400191505060405180910390fd5b6001600160a01b0382166107605760405162461bcd60e51b8152600401808060200182810382526022815260200180610ca46022913960400191505060405180910390fd5b6001600160a01b03808416600081815260016020908152604080832094871680845294825291829020859055815185815291517f8c5be1e5ebec7d5bd14f71427d1e84f3dd0314c0f7b2291e5b200ac8c7c3b9259281900390910190a3505050565b6001600160a01b0383166108075760405162461bcd60e51b8152600401808060200182810382526025815260200180610d596025913960400191505060405180910390fd5b6001600160a01b03821661084c5760405162461bcd60e51b8152600401808060200182810382526023815260200180610c5f6023913960400191505060405180910390fd5b6108578383836105c5565b61089481604051806060016040528060268152602001610cc6602691396001600160a01b038616600090815260208190526040902054919061091d565b6001600160a01b0380851660009081526020819052604080822093909355908416815220546108c390826109b4565b6001600160a01b038084166000818152602081815260409182902094909455805185815290519193928716927fddf252ad1be2c89b69c2b068fc378daa952ba7f163c4a11628f55a4df523b3ef92918290030190a3505050565b600081848411156109ac5760405162461bcd60e51b81526004018080602001828103825283818151815260200191508051906020019080838360005b83811015610971578181015183820152602001610959565b50505050905090810190601f16801561099e5780820380516001836020036101000a031916815260200191505b509250505060405180910390fd5b505050900390565b600082820183811015610a0e576040805162461bcd60e51b815260206004820152601b60248201527f536166654d6174683a206164646974696f6e206f766572666c6f770000000000604482015290519081900360640190fd5b9392505050565b6001600160a01b038216610a70576040805162461bcd60e51b815260206004820152601f60248201527f45524332303a206d696e7420746f20746865207a65726f206164647265737300604482015290519081900360640190fd5b610a7c600083836105c5565b600254610a8990826109b4565b6002556001600160a01b038216600090815260208190526040902054610aaf90826109b4565b6001600160a01b0383166000818152602081815260408083209490945583518581529351929391927fddf252ad1be2c89b69c2b068fc378daa952ba7f163c4a11628f55a4df523b3ef9281900390910190a35050565b6001600160a01b038216610b4a5760405162461bcd60e51b8152600401808060200182810382526021815260200180610d386021913960400191505060405180910390fd5b610b56826000836105c5565b610b9381604051806060016040528060228152602001610c82602291396001600160a01b038516600090815260208190526040902054919061091d565b6001600160a01b038316600090815260208190526040902055600254610bb99082610c01565b6002556040805182815290516000916001600160a01b038516917fddf252ad1be2c89b69c2b068fc378daa952ba7f163c4a11628f55a4df523b3ef9181900360200190a35050565b600082821115610c58576040805162461bcd60e51b815260206004820152601e60248201527f536166654d6174683a207375627472616374696f6e206f766572666c6f770000604482015290519081900360640190fd5b5090039056fe45524332303a207472616e7366657220746f20746865207a65726f206164647265737345524332303a206275726e20616d6f756e7420657863656564732062616c616e636545524332303a20617070726f766520746f20746865207a65726f206164647265737345524332303a207472616e7366657220616d6f756e7420657863656564732062616c616e636545524332303a207472616e7366657220616d6f756e74206578636565647320616c6c6f77616e636545524332303a206275726e20616d6f756e74206578636565647320616c6c6f77616e636545524332303a206275726e2066726f6d20746865207a65726f206164647265737345524332303a207472616e736665722066726f6d20746865207a65726f206164647265737345524332303a20617070726f76652066726f6d20746865207a65726f206164647265737345524332303a2064656372656173656420616c6c6f77616e63652062656c6f77207a65726fa264697066735822122085f23da5b3616d1477ea1c0e47034736c609a17e8be075f3d759708174c7bac464736f6c634300060c0033a2646970667358221220d8f1a7a018cc4e6be1289e98ff0f26e269a4488716748949a6569c1d7f9c68dc64736f6c634300060c0033",
  "devdoc": {
    "kind": "dev",
    "methods": {},
    "version": 1
  },
  "userdoc": {
    "kind": "user",
    "methods": {},
    "version": 1
  },
  "storageLayout": {
    "storage": [
      {
        "astId": 2350,
        "contract": "contracts/ERC20TokenLauncher.sol:ERC20TokenLauncher",
        "label": "tokenLaunchCampaign",
        "offset": 0,
        "slot": "0",
        "type": "t_mapping(t_string_memory_ptr,t_struct(tokenLaunchCampaignStruct)2346_storage)"
      },
      {
        "astId": 2355,
        "contract": "contracts/ERC20TokenLauncher.sol:ERC20TokenLauncher",
        "label": "listOfTokenLaunchCampaignsPerUser",
        "offset": 0,
        "slot": "1",
        "type": "t_mapping(t_address,t_array(t_string_storage)dyn_storage)"
      }
    ],
    "types": {
      "t_address": {
        "encoding": "inplace",
        "label": "address",
        "numberOfBytes": "20"
      },
      "t_array(t_string_storage)dyn_storage": {
        "base": "t_string_storage",
        "encoding": "dynamic_array",
        "label": "string[]",
        "numberOfBytes": "32"
      },
      "t_mapping(t_address,t_array(t_string_storage)dyn_storage)": {
        "encoding": "mapping",
        "key": "t_address",
        "label": "mapping(address => string[])",
        "numberOfBytes": "32",
        "value": "t_array(t_string_storage)dyn_storage"
      },
      "t_mapping(t_string_memory_ptr,t_struct(tokenLaunchCampaignStruct)2346_storage)": {
        "encoding": "mapping",
        "key": "t_string_memory_ptr",
        "label": "mapping(string => struct ERC20TokenLauncher.tokenLaunchCampaignStruct)",
        "numberOfBytes": "32",
        "value": "t_struct(tokenLaunchCampaignStruct)2346_storage"
      },
      "t_string_memory_ptr": {
        "encoding": "bytes",
        "label": "string",
        "numberOfBytes": "32"
      },
      "t_string_storage": {
        "encoding": "bytes",
        "label": "string",
        "numberOfBytes": "32"
      },
      "t_struct(tokenLaunchCampaignStruct)2346_storage": {
        "encoding": "inplace",
        "label": "struct ERC20TokenLauncher.tokenLaunchCampaignStruct",
        "members": [
          {
            "astId": 2335,
            "contract": "contracts/ERC20TokenLauncher.sol:ERC20TokenLauncher",
            "label": "_tokenAddr",
            "offset": 0,
            "slot": "0",
            "type": "t_address"
          },
          {
            "astId": 2337,
            "contract": "contracts/ERC20TokenLauncher.sol:ERC20TokenLauncher",
            "label": "_quantityEarlyUsersPool",
            "offset": 0,
            "slot": "1",
            "type": "t_uint256"
          },
          {
            "astId": 2339,
            "contract": "contracts/ERC20TokenLauncher.sol:ERC20TokenLauncher",
            "label": "_quantityLiquidityPool",
            "offset": 0,
            "slot": "2",
            "type": "t_uint256"
          },
          {
            "astId": 2341,
            "contract": "contracts/ERC20TokenLauncher.sol:ERC20TokenLauncher",
            "label": "_expiringDay",
            "offset": 0,
            "slot": "3",
            "type": "t_uint256"
          },
          {
            "astId": 2343,
            "contract": "contracts/ERC20TokenLauncher.sol:ERC20TokenLauncher",
            "label": "_campaignOwner",
            "offset": 0,
            "slot": "4",
            "type": "t_address"
          },
          {
            "astId": 2345,
            "contract": "contracts/ERC20TokenLauncher.sol:ERC20TokenLauncher",
            "label": "_temporaryLiquidityToken",
            "offset": 0,
            "slot": "5",
            "type": "t_address"
          }
        ],
        "numberOfBytes": "192"
      },
      "t_uint256": {
        "encoding": "inplace",
        "label": "uint256",
        "numberOfBytes": "32"
      }
    }
  }
}